{
  "_format": "hh-sol-artifact-1",
  "contractName": "Exchange",
  "sourceName": "contracts/Exchange.sol",
  "abi": [
    {
      "inputs": [
        {
          "internalType": "address",
          "name": "_token",
          "type": "address"
        }
      ],
      "stateMutability": "nonpayable",
      "type": "constructor"
    },
    {
      "anonymous": false,
      "inputs": [
        {
          "indexed": true,
          "internalType": "address",
          "name": "owner",
          "type": "address"
        },
        {
          "indexed": true,
          "internalType": "address",
          "name": "spender",
          "type": "address"
        },
        {
          "indexed": false,
          "internalType": "uint256",
          "name": "value",
          "type": "uint256"
        }
      ],
      "name": "Approval",
      "type": "event"
    },
    {
      "anonymous": false,
      "inputs": [
        {
          "indexed": true,
          "internalType": "address",
          "name": "from",
          "type": "address"
        },
        {
          "indexed": true,
          "internalType": "address",
          "name": "to",
          "type": "address"
        },
        {
          "indexed": false,
          "internalType": "uint256",
          "name": "value",
          "type": "uint256"
        }
      ],
      "name": "Transfer",
      "type": "event"
    },
    {
      "inputs": [
        {
          "internalType": "uint256",
          "name": "_tokenAmount",
          "type": "uint256"
        }
      ],
      "name": "addLiquidity",
      "outputs": [
        {
          "internalType": "uint256",
          "name": "",
          "type": "uint256"
        }
      ],
      "stateMutability": "payable",
      "type": "function"
    },
    {
      "inputs": [],
      "name": "addLiquidityRate",
      "outputs": [
        {
          "internalType": "uint256",
          "name": "",
          "type": "uint256"
        }
      ],
      "stateMutability": "view",
      "type": "function"
    },
    {
      "inputs": [
        {
          "internalType": "address",
          "name": "owner",
          "type": "address"
        },
        {
          "internalType": "address",
          "name": "spender",
          "type": "address"
        }
      ],
      "name": "allowance",
      "outputs": [
        {
          "internalType": "uint256",
          "name": "",
          "type": "uint256"
        }
      ],
      "stateMutability": "view",
      "type": "function"
    },
    {
      "inputs": [
        {
          "internalType": "address",
          "name": "spender",
          "type": "address"
        },
        {
          "internalType": "uint256",
          "name": "amount",
          "type": "uint256"
        }
      ],
      "name": "approve",
      "outputs": [
        {
          "internalType": "bool",
          "name": "",
          "type": "bool"
        }
      ],
      "stateMutability": "nonpayable",
      "type": "function"
    },
    {
      "inputs": [
        {
          "internalType": "address",
          "name": "account",
          "type": "address"
        }
      ],
      "name": "balanceOf",
      "outputs": [
        {
          "internalType": "uint256",
          "name": "",
          "type": "uint256"
        }
      ],
      "stateMutability": "view",
      "type": "function"
    },
    {
      "inputs": [],
      "name": "decimals",
      "outputs": [
        {
          "internalType": "uint8",
          "name": "",
          "type": "uint8"
        }
      ],
      "stateMutability": "view",
      "type": "function"
    },
    {
      "inputs": [
        {
          "internalType": "address",
          "name": "spender",
          "type": "address"
        },
        {
          "internalType": "uint256",
          "name": "subtractedValue",
          "type": "uint256"
        }
      ],
      "name": "decreaseAllowance",
      "outputs": [
        {
          "internalType": "bool",
          "name": "",
          "type": "bool"
        }
      ],
      "stateMutability": "nonpayable",
      "type": "function"
    },
    {
      "inputs": [
        {
          "internalType": "uint256",
          "name": "_minTokens",
          "type": "uint256"
        }
      ],
      "name": "ethToTokenSwap",
      "outputs": [],
      "stateMutability": "payable",
      "type": "function"
    },
    {
      "inputs": [
        {
          "internalType": "uint256",
          "name": "_minTokens",
          "type": "uint256"
        },
        {
          "internalType": "address",
          "name": "_recipient",
          "type": "address"
        }
      ],
      "name": "ethToTokenTransfer",
      "outputs": [],
      "stateMutability": "payable",
      "type": "function"
    },
    {
      "inputs": [
        {
          "internalType": "uint256",
          "name": "_tokenSold",
          "type": "uint256"
        }
      ],
      "name": "getEthAmount",
      "outputs": [
        {
          "internalType": "uint256",
          "name": "",
          "type": "uint256"
        }
      ],
      "stateMutability": "view",
      "type": "function"
    },
    {
      "inputs": [],
      "name": "getReserve",
      "outputs": [
        {
          "internalType": "uint256",
          "name": "",
          "type": "uint256"
        }
      ],
      "stateMutability": "view",
      "type": "function"
    },
    {
      "inputs": [
        {
          "internalType": "uint256",
          "name": "_ethSold",
          "type": "uint256"
        }
      ],
      "name": "getTokenAmount",
      "outputs": [
        {
          "internalType": "uint256",
          "name": "",
          "type": "uint256"
        }
      ],
      "stateMutability": "view",
      "type": "function"
    },
    {
      "inputs": [
        {
          "internalType": "uint256",
          "name": "_tokenSold",
          "type": "uint256"
        },
        {
          "internalType": "address",
          "name": "_tokenAddress",
          "type": "address"
        }
      ],
      "name": "getTokenToTokenAmount",
      "outputs": [
        {
          "internalType": "uint256",
          "name": "",
          "type": "uint256"
        }
      ],
      "stateMutability": "view",
      "type": "function"
    },
    {
      "inputs": [
        {
          "internalType": "address",
          "name": "spender",
          "type": "address"
        },
        {
          "internalType": "uint256",
          "name": "addedValue",
          "type": "uint256"
        }
      ],
      "name": "increaseAllowance",
      "outputs": [
        {
          "internalType": "bool",
          "name": "",
          "type": "bool"
        }
      ],
      "stateMutability": "nonpayable",
      "type": "function"
    },
    {
      "inputs": [],
      "name": "name",
      "outputs": [
        {
          "internalType": "string",
          "name": "",
          "type": "string"
        }
      ],
      "stateMutability": "view",
      "type": "function"
    },
    {
      "inputs": [],
      "name": "registryAddress",
      "outputs": [
        {
          "internalType": "address",
          "name": "",
          "type": "address"
        }
      ],
      "stateMutability": "view",
      "type": "function"
    },
    {
      "inputs": [
        {
          "internalType": "uint256",
          "name": "_amount",
          "type": "uint256"
        }
      ],
      "name": "removeLiquidity",
      "outputs": [
        {
          "internalType": "uint256",
          "name": "",
          "type": "uint256"
        },
        {
          "internalType": "uint256",
          "name": "",
          "type": "uint256"
        }
      ],
      "stateMutability": "nonpayable",
      "type": "function"
    },
    {
      "inputs": [],
      "name": "symbol",
      "outputs": [
        {
          "internalType": "string",
          "name": "",
          "type": "string"
        }
      ],
      "stateMutability": "view",
      "type": "function"
    },
    {
      "inputs": [],
      "name": "tokenAddress",
      "outputs": [
        {
          "internalType": "address",
          "name": "",
          "type": "address"
        }
      ],
      "stateMutability": "view",
      "type": "function"
    },
    {
      "inputs": [
        {
          "internalType": "uint256",
          "name": "_tokensSold",
          "type": "uint256"
        },
        {
          "internalType": "uint256",
          "name": "_minEth",
          "type": "uint256"
        }
      ],
      "name": "tokenToEthSwap",
      "outputs": [],
      "stateMutability": "nonpayable",
      "type": "function"
    },
    {
      "inputs": [
        {
          "internalType": "uint256",
          "name": "_tokensSold",
          "type": "uint256"
        },
        {
          "internalType": "uint256",
          "name": "_minTokensBought",
          "type": "uint256"
        },
        {
          "internalType": "address",
          "name": "_tokenAddress",
          "type": "address"
        }
      ],
      "name": "tokenToTokenSwap",
      "outputs": [],
      "stateMutability": "nonpayable",
      "type": "function"
    },
    {
      "inputs": [],
      "name": "totalSupply",
      "outputs": [
        {
          "internalType": "uint256",
          "name": "",
          "type": "uint256"
        }
      ],
      "stateMutability": "view",
      "type": "function"
    },
    {
      "inputs": [
        {
          "internalType": "address",
          "name": "recipient",
          "type": "address"
        },
        {
          "internalType": "uint256",
          "name": "amount",
          "type": "uint256"
        }
      ],
      "name": "transfer",
      "outputs": [
        {
          "internalType": "bool",
          "name": "",
          "type": "bool"
        }
      ],
      "stateMutability": "nonpayable",
      "type": "function"
    },
    {
      "inputs": [
        {
          "internalType": "address",
          "name": "sender",
          "type": "address"
        },
        {
          "internalType": "address",
          "name": "recipient",
          "type": "address"
        },
        {
          "internalType": "uint256",
          "name": "amount",
          "type": "uint256"
        }
      ],
      "name": "transferFrom",
      "outputs": [
        {
          "internalType": "bool",
          "name": "",
          "type": "bool"
        }
      ],
      "stateMutability": "nonpayable",
      "type": "function"
    }
  ],
  "bytecode": "0x60806040523480156200001157600080fd5b50604051620034663803806200346683398181016040528101906200003791906200029a565b6040518060400160405280600881526020017f4c7020546f6b656e0000000000000000000000000000000000000000000000008152506040518060400160405280600281526020017f4c500000000000000000000000000000000000000000000000000000000000008152508160039080519060200190620000bb929190620001d3565b508060049080519060200190620000d4929190620001d3565b505050600073ffffffffffffffffffffffffffffffffffffffff168173ffffffffffffffffffffffffffffffffffffffff1614156200014a576040517f08c379a00000000000000000000000000000000000000000000000000000000081526004016200014190620002ed565b60405180910390fd5b80600560006101000a81548173ffffffffffffffffffffffffffffffffffffffff021916908373ffffffffffffffffffffffffffffffffffffffff16021790555033600660006101000a81548173ffffffffffffffffffffffffffffffffffffffff021916908373ffffffffffffffffffffffffffffffffffffffff16021790555050620003fc565b828054620001e19062000354565b90600052602060002090601f01602090048101928262000205576000855562000251565b82601f106200022057805160ff191683800117855562000251565b8280016001018555821562000251579182015b828111156200025057825182559160200191906001019062000233565b5b50905062000260919062000264565b5090565b5b808211156200027f57600081600090555060010162000265565b5090565b6000815190506200029481620003e2565b92915050565b600060208284031215620002ad57600080fd5b6000620002bd8482850162000283565b91505092915050565b6000620002d5600d836200030f565b9150620002e282620003b9565b602082019050919050565b600060208201905081810360008301526200030881620002c6565b9050919050565b600082825260208201905092915050565b60006200032d8262000334565b9050919050565b600073ffffffffffffffffffffffffffffffffffffffff82169050919050565b600060028204905060018216806200036d57607f821691505b602082108114156200038457620003836200038a565b5b50919050565b7f4e487b7100000000000000000000000000000000000000000000000000000000600052602260045260246000fd5b7f496e76616c696420746f6b656e00000000000000000000000000000000000000600082015250565b620003ed8162000320565b8114620003f957600080fd5b50565b61305a806200040c6000396000f3fe60806040526004361061014b5760003560e01c80638fc7a25d116100b6578063c2507ac11161006f578063c2507ac1146104ef578063dd62ed3e1461052c578063e0486c8a14610569578063ed9aab5114610592578063f7a7e324146105bd578063f979dcd7146105e65761014b565b80638fc7a25d146103a457806395d89b41146103e15780639c8f9f231461040c5780639d76ea581461044a578063a457c2d714610475578063a9059cbb146104b25761014b565b8063389d9a4011610108578063389d9a401461027657806339509351146102925780634fe78f6f146102cf57806351c6590a1461030c57806359bf5d391461033c57806370a08231146103675761014b565b8063045af2581461015057806306fdde031461017b578063095ea7b3146101a657806318160ddd146101e357806323b872dd1461020e578063313ce5671461024b575b600080fd5b34801561015c57600080fd5b50610165610602565b6040516101729190612870565b60405180910390f35b34801561018757600080fd5b5061019061063a565b60405161019d919061260e565b60405180910390f35b3480156101b257600080fd5b506101cd60048036038101906101c8919061210f565b6106cc565b6040516101da91906125f3565b60405180910390f35b3480156101ef57600080fd5b506101f86106ea565b6040516102059190612870565b60405180910390f35b34801561021a57600080fd5b50610235600480360381019061023091906120c0565b6106f4565b60405161024291906125f3565b60405180910390f35b34801561025757600080fd5b506102606107ec565b60405161026d91906128dd565b60405180910390f35b610290600480360381019061028b91906121c6565b6107f5565b005b34801561029e57600080fd5b506102b960048036038101906102b4919061210f565b610803565b6040516102c691906125f3565b60405180910390f35b3480156102db57600080fd5b506102f660048036038101906102f191906121c6565b6108af565b6040516103039190612870565b60405180910390f35b61032660048036038101906103219190612174565b610ade565b6040516103339190612870565b60405180910390f35b34801561034857600080fd5b50610351610c62565b60405161035e9190612870565b60405180910390f35b34801561037357600080fd5b5061038e60048036038101906103899190612032565b610d14565b60405161039b9190612870565b60405180910390f35b3480156103b057600080fd5b506103cb60048036038101906103c69190612174565b610d5c565b6040516103d89190612870565b60405180910390f35b3480156103ed57600080fd5b506103f6610dbf565b604051610403919061260e565b60405180910390f35b34801561041857600080fd5b50610433600480360381019061042e9190612174565b610e51565b6040516104419291906128b4565b60405180910390f35b34801561045657600080fd5b5061045f610ff0565b60405161046c9190612578565b60405180910390f35b34801561048157600080fd5b5061049c6004803603810190610497919061210f565b611016565b6040516104a991906125f3565b60405180910390f35b3480156104be57600080fd5b506104d960048036038101906104d4919061210f565b611101565b6040516104e691906125f3565b60405180910390f35b3480156104fb57600080fd5b5061051660048036038101906105119190612174565b61111f565b6040516105239190612870565b60405180910390f35b34801561053857600080fd5b50610553600480360381019061054e9190612084565b611182565b6040516105609190612870565b60405180910390f35b34801561057557600080fd5b50610590600480360381019061058b9190612202565b611209565b005b34801561059e57600080fd5b506105a7611366565b6040516105b49190612578565b60405180910390f35b3480156105c957600080fd5b506105e460048036038101906105df919061223e565b61138c565b005b61060060048036038101906105fb9190612174565b61165d565b005b6000804790506000610612610c62565b905081670de0b6b3a764000082610629919061299b565b610633919061296a565b9250505090565b60606003805461064990612ab1565b80601f016020809104026020016040519081016040528092919081815260200182805461067590612ab1565b80156106c25780601f10610697576101008083540402835291602001916106c2565b820191906000526020600020905b8154815290600101906020018083116106a557829003601f168201915b5050505050905090565b60006106e06106d961166a565b8484611672565b6001905092915050565b6000600254905090565b600061070184848461183d565b6000600160008673ffffffffffffffffffffffffffffffffffffffff1673ffffffffffffffffffffffffffffffffffffffff168152602001908152602001600020600061074c61166a565b73ffffffffffffffffffffffffffffffffffffffff1673ffffffffffffffffffffffffffffffffffffffff168152602001908152602001600020549050828110156107cc576040517f08c379a00000000000000000000000000000000000000000000000000000000081526004016107c390612730565b60405180910390fd5b6107e0856107d861166a565b858403611672565b60019150509392505050565b60006012905090565b6107ff8282611abe565b5050565b60006108a561081061166a565b84846001600061081e61166a565b73ffffffffffffffffffffffffffffffffffffffff1673ffffffffffffffffffffffffffffffffffffffff16815260200190815260200160002060008873ffffffffffffffffffffffffffffffffffffffff1673ffffffffffffffffffffffffffffffffffffffff168152602001908152602001600020546108a09190612914565b611672565b6001905092915050565b600080600660009054906101000a900473ffffffffffffffffffffffffffffffffffffffff1673ffffffffffffffffffffffffffffffffffffffff166306f2bf62846040518263ffffffff1660e01b815260040161090d9190612578565b60206040518083038186803b15801561092557600080fd5b505afa158015610939573d6000803e3d6000fd5b505050506040513d601f19601f8201168201806040525081019061095d919061205b565b90503073ffffffffffffffffffffffffffffffffffffffff168173ffffffffffffffffffffffffffffffffffffffff1614156109ce576040517f08c379a00000000000000000000000000000000000000000000000000000000081526004016109c590612770565b60405180910390fd5b600073ffffffffffffffffffffffffffffffffffffffff168173ffffffffffffffffffffffffffffffffffffffff161415610a3e576040517f08c379a0000000000000000000000000000000000000000000000000000000008152600401610a35906127d0565b60405180910390fd5b6000610a4985610d5c565b90508173ffffffffffffffffffffffffffffffffffffffff1663c2507ac1826040518263ffffffff1660e01b8152600401610a849190612870565b60206040518083038186803b158015610a9c57600080fd5b505afa158015610ab0573d6000803e3d6000fd5b505050506040513d601f19601f82011682018060405250810190610ad4919061219d565b9250505092915050565b6000806000610aeb6106ea565b1415610af957479050610b97565b60003447610b0791906129f5565b90506000610b13610c62565b90506000828234610b24919061299b565b610b2e919061296a565b905080861015610b73576040517f08c379a0000000000000000000000000000000000000000000000000000000008152600401610b6a90612750565b60405180910390fd5b82610b7c6106ea565b34610b87919061299b565b610b91919061296a565b93505050505b6000600560009054906101000a900473ffffffffffffffffffffffffffffffffffffffff1690508073ffffffffffffffffffffffffffffffffffffffff166323b872dd3330876040518463ffffffff1660e01b8152600401610bfb93929190612593565b602060405180830381600087803b158015610c1557600080fd5b505af1158015610c29573d6000803e3d6000fd5b505050506040513d601f19601f82011682018060405250810190610c4d919061214b565b50610c583383611bdd565b8192505050919050565b6000600560009054906101000a900473ffffffffffffffffffffffffffffffffffffffff1673ffffffffffffffffffffffffffffffffffffffff166370a08231306040518263ffffffff1660e01b8152600401610cbf9190612578565b60206040518083038186803b158015610cd757600080fd5b505afa158015610ceb573d6000803e3d6000fd5b505050506040513d601f19601f82011682018060405250810190610d0f919061219d565b905090565b60008060008373ffffffffffffffffffffffffffffffffffffffff1673ffffffffffffffffffffffffffffffffffffffff168152602001908152602001600020549050919050565b6000808211610da0576040517f08c379a0000000000000000000000000000000000000000000000000000000008152600401610d97906126f0565b60405180910390fd5b6000610daa610c62565b9050610db7838247611d3d565b915050919050565b606060048054610dce90612ab1565b80601f0160208091040260200160405190810160405280929190818152602001828054610dfa90612ab1565b8015610e475780601f10610e1c57610100808354040283529160200191610e47565b820191906000526020600020905b815481529060010190602001808311610e2a57829003601f168201915b5050505050905090565b60008060008311610e97576040517f08c379a0000000000000000000000000000000000000000000000000000000008152600401610e8e906126d0565b60405180910390fd5b6000610ea16106ea565b8447610ead919061299b565b610eb7919061296a565b90506000610ec36106ea565b85610ecc610c62565b610ed6919061299b565b610ee0919061296a565b9050610eec3386611de8565b3373ffffffffffffffffffffffffffffffffffffffff166108fc839081150290604051600060405180830381858888f19350505050158015610f32573d6000803e3d6000fd5b50600560009054906101000a900473ffffffffffffffffffffffffffffffffffffffff1673ffffffffffffffffffffffffffffffffffffffff1663a9059cbb33836040518363ffffffff1660e01b8152600401610f909291906125ca565b602060405180830381600087803b158015610faa57600080fd5b505af1158015610fbe573d6000803e3d6000fd5b505050506040513d601f19601f82011682018060405250810190610fe2919061214b565b508181935093505050915091565b600560009054906101000a900473ffffffffffffffffffffffffffffffffffffffff1681565b6000806001600061102561166a565b73ffffffffffffffffffffffffffffffffffffffff1673ffffffffffffffffffffffffffffffffffffffff16815260200190815260200160002060008573ffffffffffffffffffffffffffffffffffffffff1673ffffffffffffffffffffffffffffffffffffffff168152602001908152602001600020549050828110156110e2576040517f08c379a00000000000000000000000000000000000000000000000000000000081526004016110d990612830565b60405180910390fd5b6110f66110ed61166a565b85858403611672565b600191505092915050565b600061111561110e61166a565b848461183d565b6001905092915050565b6000808211611163576040517f08c379a000000000000000000000000000000000000000000000000000000000815260040161115a90612710565b60405180910390fd5b600061116d610c62565b905061117a834783611d3d565b915050919050565b6000600160008473ffffffffffffffffffffffffffffffffffffffff1673ffffffffffffffffffffffffffffffffffffffff16815260200190815260200160002060008373ffffffffffffffffffffffffffffffffffffffff1673ffffffffffffffffffffffffffffffffffffffff16815260200190815260200160002054905092915050565b6000611213610c62565b90506000611222848347611d3d565b905082811015611267576040517f08c379a000000000000000000000000000000000000000000000000000000000815260040161125e906127b0565b60405180910390fd5b600560009054906101000a900473ffffffffffffffffffffffffffffffffffffffff1673ffffffffffffffffffffffffffffffffffffffff166323b872dd3330876040518463ffffffff1660e01b81526004016112c693929190612593565b602060405180830381600087803b1580156112e057600080fd5b505af11580156112f4573d6000803e3d6000fd5b505050506040513d601f19601f82011682018060405250810190611318919061214b565b503373ffffffffffffffffffffffffffffffffffffffff166108fc829081150290604051600060405180830381858888f1935050505015801561135f573d6000803e3d6000fd5b5050505050565b600660009054906101000a900473ffffffffffffffffffffffffffffffffffffffff1681565b6000600660009054906101000a900473ffffffffffffffffffffffffffffffffffffffff1673ffffffffffffffffffffffffffffffffffffffff166306f2bf62836040518263ffffffff1660e01b81526004016113e99190612578565b60206040518083038186803b15801561140157600080fd5b505afa158015611415573d6000803e3d6000fd5b505050506040513d601f19601f82011682018060405250810190611439919061205b565b90503073ffffffffffffffffffffffffffffffffffffffff168173ffffffffffffffffffffffffffffffffffffffff1614156114aa576040517f08c379a00000000000000000000000000000000000000000000000000000000081526004016114a190612770565b60405180910390fd5b600073ffffffffffffffffffffffffffffffffffffffff168173ffffffffffffffffffffffffffffffffffffffff16141561151a576040517f08c379a0000000000000000000000000000000000000000000000000000000008152600401611511906127d0565b60405180910390fd5b6000611524610c62565b90506000611533868347611d3d565b9050600560009054906101000a900473ffffffffffffffffffffffffffffffffffffffff1673ffffffffffffffffffffffffffffffffffffffff166323b872dd3330896040518463ffffffff1660e01b815260040161159493929190612593565b602060405180830381600087803b1580156115ae57600080fd5b505af11580156115c2573d6000803e3d6000fd5b505050506040513d601f19601f820116820180604052508101906115e6919061214b565b508273ffffffffffffffffffffffffffffffffffffffff1663389d9a408287336040518463ffffffff1660e01b815260040161162392919061288b565b6000604051808303818588803b15801561163c57600080fd5b505af1158015611650573d6000803e3d6000fd5b5050505050505050505050565b6116678133611abe565b50565b600033905090565b600073ffffffffffffffffffffffffffffffffffffffff168373ffffffffffffffffffffffffffffffffffffffff1614156116e2576040517f08c379a00000000000000000000000000000000000000000000000000000000081526004016116d990612810565b60405180910390fd5b600073ffffffffffffffffffffffffffffffffffffffff168273ffffffffffffffffffffffffffffffffffffffff161415611752576040517f08c379a000000000000000000000000000000000000000000000000000000000815260040161174990612690565b60405180910390fd5b80600160008573ffffffffffffffffffffffffffffffffffffffff1673ffffffffffffffffffffffffffffffffffffffff16815260200190815260200160002060008473ffffffffffffffffffffffffffffffffffffffff1673ffffffffffffffffffffffffffffffffffffffff168152602001908152602001600020819055508173ffffffffffffffffffffffffffffffffffffffff168373ffffffffffffffffffffffffffffffffffffffff167f8c5be1e5ebec7d5bd14f71427d1e84f3dd0314c0f7b2291e5b200ac8c7c3b925836040516118309190612870565b60405180910390a3505050565b600073ffffffffffffffffffffffffffffffffffffffff168373ffffffffffffffffffffffffffffffffffffffff1614156118ad576040517f08c379a00000000000000000000000000000000000000000000000000000000081526004016118a4906127f0565b60405180910390fd5b600073ffffffffffffffffffffffffffffffffffffffff168273ffffffffffffffffffffffffffffffffffffffff16141561191d576040517f08c379a000000000000000000000000000000000000000000000000000000000815260040161191490612630565b60405180910390fd5b611928838383611fbf565b60008060008573ffffffffffffffffffffffffffffffffffffffff1673ffffffffffffffffffffffffffffffffffffffff168152602001908152602001600020549050818110156119ae576040517f08c379a00000000000000000000000000000000000000000000000000000000081526004016119a5906126b0565b60405180910390fd5b8181036000808673ffffffffffffffffffffffffffffffffffffffff1673ffffffffffffffffffffffffffffffffffffffff16815260200190815260200160002081905550816000808573ffffffffffffffffffffffffffffffffffffffff1673ffffffffffffffffffffffffffffffffffffffff1681526020019081526020016000206000828254611a419190612914565b925050819055508273ffffffffffffffffffffffffffffffffffffffff168473ffffffffffffffffffffffffffffffffffffffff167fddf252ad1be2c89b69c2b068fc378daa952ba7f163c4a11628f55a4df523b3ef84604051611aa59190612870565b60405180910390a3611ab8848484611fc4565b50505050565b6000611ac8610c62565b90506000611ae2343447611adc91906129f5565b84611d3d565b905083811015611b27576040517f08c379a0000000000000000000000000000000000000000000000000000000008152600401611b1e906127b0565b60405180910390fd5b600560009054906101000a900473ffffffffffffffffffffffffffffffffffffffff1673ffffffffffffffffffffffffffffffffffffffff1663a9059cbb84836040518363ffffffff1660e01b8152600401611b849291906125ca565b602060405180830381600087803b158015611b9e57600080fd5b505af1158015611bb2573d6000803e3d6000fd5b505050506040513d601f19601f82011682018060405250810190611bd6919061214b565b5050505050565b600073ffffffffffffffffffffffffffffffffffffffff168273ffffffffffffffffffffffffffffffffffffffff161415611c4d576040517f08c379a0000000000000000000000000000000000000000000000000000000008152600401611c4490612850565b60405180910390fd5b611c5960008383611fbf565b8060026000828254611c6b9190612914565b92505081905550806000808473ffffffffffffffffffffffffffffffffffffffff1673ffffffffffffffffffffffffffffffffffffffff1681526020019081526020016000206000828254611cc09190612914565b925050819055508173ffffffffffffffffffffffffffffffffffffffff16600073ffffffffffffffffffffffffffffffffffffffff167fddf252ad1be2c89b69c2b068fc378daa952ba7f163c4a11628f55a4df523b3ef83604051611d259190612870565b60405180910390a3611d3960008383611fc4565b5050565b60008083118015611d4e5750600082115b611d8d576040517f08c379a0000000000000000000000000000000000000000000000000000000008152600401611d8490612670565b60405180910390fd5b60006063905060008186611da1919061299b565b905060008482611db1919061299b565b9050600082606488611dc3919061299b565b611dcd9190612914565b90508082611ddb919061296a565b9450505050509392505050565b600073ffffffffffffffffffffffffffffffffffffffff168273ffffffffffffffffffffffffffffffffffffffff161415611e58576040517f08c379a0000000000000000000000000000000000000000000000000000000008152600401611e4f90612790565b60405180910390fd5b611e6482600083611fbf565b60008060008473ffffffffffffffffffffffffffffffffffffffff1673ffffffffffffffffffffffffffffffffffffffff16815260200190815260200160002054905081811015611eea576040517f08c379a0000000000000000000000000000000000000000000000000000000008152600401611ee190612650565b60405180910390fd5b8181036000808573ffffffffffffffffffffffffffffffffffffffff1673ffffffffffffffffffffffffffffffffffffffff168152602001908152602001600020819055508160026000828254611f4191906129f5565b92505081905550600073ffffffffffffffffffffffffffffffffffffffff168373ffffffffffffffffffffffffffffffffffffffff167fddf252ad1be2c89b69c2b068fc378daa952ba7f163c4a11628f55a4df523b3ef84604051611fa69190612870565b60405180910390a3611fba83600084611fc4565b505050565b505050565b505050565b600081359050611fd881612fdf565b92915050565b600081519050611fed81612fdf565b92915050565b60008151905061200281612ff6565b92915050565b6000813590506120178161300d565b92915050565b60008151905061202c8161300d565b92915050565b60006020828403121561204457600080fd5b600061205284828501611fc9565b91505092915050565b60006020828403121561206d57600080fd5b600061207b84828501611fde565b91505092915050565b6000806040838503121561209757600080fd5b60006120a585828601611fc9565b92505060206120b685828601611fc9565b9150509250929050565b6000806000606084860312156120d557600080fd5b60006120e386828701611fc9565b93505060206120f486828701611fc9565b925050604061210586828701612008565b9150509250925092565b6000806040838503121561212257600080fd5b600061213085828601611fc9565b925050602061214185828601612008565b9150509250929050565b60006020828403121561215d57600080fd5b600061216b84828501611ff3565b91505092915050565b60006020828403121561218657600080fd5b600061219484828501612008565b91505092915050565b6000602082840312156121af57600080fd5b60006121bd8482850161201d565b91505092915050565b600080604083850312156121d957600080fd5b60006121e785828601612008565b92505060206121f885828601611fc9565b9150509250929050565b6000806040838503121561221557600080fd5b600061222385828601612008565b925050602061223485828601612008565b9150509250929050565b60008060006060848603121561225357600080fd5b600061226186828701612008565b935050602061227286828701612008565b925050604061228386828701611fc9565b9150509250925092565b61229681612a29565b82525050565b6122a581612a3b565b82525050565b60006122b6826128f8565b6122c08185612903565b93506122d0818560208601612a7e565b6122d981612b70565b840191505092915050565b60006122f1602383612903565b91506122fc82612b81565b604082019050919050565b6000612314602283612903565b915061231f82612bd0565b604082019050919050565b6000612337601083612903565b915061234282612c1f565b602082019050919050565b600061235a602283612903565b915061236582612c48565b604082019050919050565b600061237d602683612903565b915061238882612c97565b604082019050919050565b60006123a0600e83612903565b91506123ab82612ce6565b602082019050919050565b60006123c3601483612903565b91506123ce82612d0f565b602082019050919050565b60006123e6601283612903565b91506123f182612d38565b602082019050919050565b6000612409602883612903565b915061241482612d61565b604082019050919050565b600061242c601983612903565b915061243782612db0565b602082019050919050565b600061244f601883612903565b915061245a82612dd9565b602082019050919050565b6000612472602183612903565b915061247d82612e02565b604082019050919050565b6000612495601a83612903565b91506124a082612e51565b602082019050919050565b60006124b8602483612903565b91506124c382612e7a565b604082019050919050565b60006124db602583612903565b91506124e682612ec9565b604082019050919050565b60006124fe602483612903565b915061250982612f18565b604082019050919050565b6000612521602583612903565b915061252c82612f67565b604082019050919050565b6000612544601f83612903565b915061254f82612fb6565b602082019050919050565b61256381612a67565b82525050565b61257281612a71565b82525050565b600060208201905061258d600083018461228d565b92915050565b60006060820190506125a8600083018661228d565b6125b5602083018561228d565b6125c2604083018461255a565b949350505050565b60006040820190506125df600083018561228d565b6125ec602083018461255a565b9392505050565b6000602082019050612608600083018461229c565b92915050565b6000602082019050818103600083015261262881846122ab565b905092915050565b60006020820190508181036000830152612649816122e4565b9050919050565b6000602082019050818103600083015261266981612307565b9050919050565b600060208201905081810360008301526126898161232a565b9050919050565b600060208201905081810360008301526126a98161234d565b9050919050565b600060208201905081810360008301526126c981612370565b9050919050565b600060208201905081810360008301526126e981612393565b9050919050565b60006020820190508181036000830152612709816123b6565b9050919050565b60006020820190508181036000830152612729816123d9565b9050919050565b60006020820190508181036000830152612749816123fc565b9050919050565b600060208201905081810360008301526127698161241f565b9050919050565b6000602082019050818103600083015261278981612442565b9050919050565b600060208201905081810360008301526127a981612465565b9050919050565b600060208201905081810360008301526127c981612488565b9050919050565b600060208201905081810360008301526127e9816124ab565b9050919050565b60006020820190508181036000830152612809816124ce565b9050919050565b60006020820190508181036000830152612829816124f1565b9050919050565b6000602082019050818103600083015261284981612514565b9050919050565b6000602082019050818103600083015261286981612537565b9050919050565b6000602082019050612885600083018461255a565b92915050565b60006040820190506128a0600083018561255a565b6128ad602083018461228d565b9392505050565b60006040820190506128c9600083018561255a565b6128d6602083018461255a565b9392505050565b60006020820190506128f26000830184612569565b92915050565b600081519050919050565b600082825260208201905092915050565b600061291f82612a67565b915061292a83612a67565b9250827fffffffffffffffffffffffffffffffffffffffffffffffffffffffffffffffff0382111561295f5761295e612ae3565b5b828201905092915050565b600061297582612a67565b915061298083612a67565b9250826129905761298f612b12565b5b828204905092915050565b60006129a682612a67565b91506129b183612a67565b9250817fffffffffffffffffffffffffffffffffffffffffffffffffffffffffffffffff04831182151516156129ea576129e9612ae3565b5b828202905092915050565b6000612a0082612a67565b9150612a0b83612a67565b925082821015612a1e57612a1d612ae3565b5b828203905092915050565b6000612a3482612a47565b9050919050565b60008115159050919050565b600073ffffffffffffffffffffffffffffffffffffffff82169050919050565b6000819050919050565b600060ff82169050919050565b60005b83811015612a9c578082015181840152602081019050612a81565b83811115612aab576000848401525b50505050565b60006002820490506001821680612ac957607f821691505b60208210811415612add57612adc612b41565b5b50919050565b7f4e487b7100000000000000000000000000000000000000000000000000000000600052601160045260246000fd5b7f4e487b7100000000000000000000000000000000000000000000000000000000600052601260045260246000fd5b7f4e487b7100000000000000000000000000000000000000000000000000000000600052602260045260246000fd5b6000601f19601f8301169050919050565b7f45524332303a207472616e7366657220746f20746865207a65726f206164647260008201527f6573730000000000000000000000000000000000000000000000000000000000602082015250565b7f45524332303a206275726e20616d6f756e7420657863656564732062616c616e60008201527f6365000000000000000000000000000000000000000000000000000000000000602082015250565b7f496e76616c696420726573657276657300000000000000000000000000000000600082015250565b7f45524332303a20617070726f766520746f20746865207a65726f20616464726560008201527f7373000000000000000000000000000000000000000000000000000000000000602082015250565b7f45524332303a207472616e7366657220616d6f756e742065786365656473206260008201527f616c616e63650000000000000000000000000000000000000000000000000000602082015250565b7f696e76616c696420616d6f756e74000000000000000000000000000000000000600082015250565b7f496e76616c696420746f6b656e20616d6f756e74000000000000000000000000600082015250565b7f496e76616c69642045544820616d6f756e740000000000000000000000000000600082015250565b7f45524332303a207472616e7366657220616d6f756e742065786365656473206160008201527f6c6c6f77616e6365000000000000000000000000000000000000000000000000602082015250565b7f496e636f727265637420746f6b656e2f65746820726174696f00000000000000600082015250565b7f696e76616c69642065786368616e676520616464726573730000000000000000600082015250565b7f45524332303a206275726e2066726f6d20746865207a65726f2061646472657360008201527f7300000000000000000000000000000000000000000000000000000000000000602082015250565b7f696e73756666696369656e74206f757470757420616d6f756e74000000000000600082015250565b7f74686572652773206e6f2065786368616e676520666f722077616e746564207460008201527f6f6b656e00000000000000000000000000000000000000000000000000000000602082015250565b7f45524332303a207472616e736665722066726f6d20746865207a65726f20616460008201527f6472657373000000000000000000000000000000000000000000000000000000602082015250565b7f45524332303a20617070726f76652066726f6d20746865207a65726f2061646460008201527f7265737300000000000000000000000000000000000000000000000000000000602082015250565b7f45524332303a2064656372656173656420616c6c6f77616e63652062656c6f7760008201527f207a65726f000000000000000000000000000000000000000000000000000000602082015250565b7f45524332303a206d696e7420746f20746865207a65726f206164647265737300600082015250565b612fe881612a29565b8114612ff357600080fd5b50565b612fff81612a3b565b811461300a57600080fd5b50565b61301681612a67565b811461302157600080fd5b5056fea2646970667358221220910dbfbbe75fb5c4aa7ccc8a1a63d08b6ee9e16e8d92305e0f9e3b12e244189264736f6c63430008040033",
  "linkReferences": {},
  "deployedLinkReferences": {}
}