{
  "_format": "hh-sol-artifact-1",
  "contractName": "Registry",
  "sourceName": "contracts/Registry.sol",
  "abi": [
    {
      "inputs": [
        {
          "internalType": "address",
          "name": "_tokenAddress",
          "type": "address"
        }
      ],
      "name": "createExchange",
      "outputs": [
        {
          "internalType": "address",
          "name": "",
          "type": "address"
        }
      ],
      "stateMutability": "nonpayable",
      "type": "function"
    },
    {
      "inputs": [
        {
          "internalType": "address",
          "name": "_tokenAddress",
          "type": "address"
        }
      ],
      "name": "getExchange",
      "outputs": [
        {
          "internalType": "address",
          "name": "",
          "type": "address"
        }
      ],
      "stateMutability": "view",
      "type": "function"
    },
    {
      "inputs": [
        {
          "internalType": "address",
          "name": "",
          "type": "address"
        }
      ],
      "name": "tokenToExchange",
      "outputs": [
        {
          "internalType": "address",
          "name": "",
          "type": "address"
        }
      ],
      "stateMutability": "view",
      "type": "function"
    }
  ],
  "bytecode": "0x608060405234801561001057600080fd5b506139d6806100206000396000f3fe608060405234801561001057600080fd5b50600436106100415760003560e01c806306f2bf62146100465780631648f38e14610076578063c3c49a63146100a6575b600080fd5b610060600480360381019061005b9190610390565b6100d6565b60405161006d919061040e565b60405180910390f35b610090600480360381019061008b9190610390565b61013e565b60405161009d919061040e565b60405180910390f35b6100c060048036038101906100bb9190610390565b61033a565b6040516100cd919061040e565b60405180910390f35b60008060008373ffffffffffffffffffffffffffffffffffffffff1673ffffffffffffffffffffffffffffffffffffffff16815260200190815260200160002060009054906101000a900473ffffffffffffffffffffffffffffffffffffffff169050919050565b60008073ffffffffffffffffffffffffffffffffffffffff168273ffffffffffffffffffffffffffffffffffffffff1614156101af576040517f08c379a00000000000000000000000000000000000000000000000000000000081526004016101a690610429565b60405180910390fd5b600073ffffffffffffffffffffffffffffffffffffffff166000808473ffffffffffffffffffffffffffffffffffffffff1673ffffffffffffffffffffffffffffffffffffffff16815260200190815260200160002060009054906101000a900473ffffffffffffffffffffffffffffffffffffffff1673ffffffffffffffffffffffffffffffffffffffff161461027c576040517f08c379a000000000000000000000000000000000000000000000000000000000815260040161027390610449565b60405180910390fd5b60008260405161028b9061036d565b610295919061040e565b604051809103906000f0801580156102b1573d6000803e3d6000fd5b509050806000808573ffffffffffffffffffffffffffffffffffffffff1673ffffffffffffffffffffffffffffffffffffffff16815260200190815260200160002060006101000a81548173ffffffffffffffffffffffffffffffffffffffff021916908373ffffffffffffffffffffffffffffffffffffffff16021790555080915050919050565b60006020528060005260406000206000915054906101000a900473ffffffffffffffffffffffffffffffffffffffff1681565b61348b806200051683390190565b60008135905061038a816104fe565b92915050565b6000602082840312156103a257600080fd5b60006103b08482850161037b565b91505092915050565b6103c28161047a565b82525050565b60006103d5601583610469565b91506103e0826104ac565b602082019050919050565b60006103f8601783610469565b9150610403826104d5565b602082019050919050565b600060208201905061042360008301846103b9565b92915050565b60006020820190508181036000830152610442816103c8565b9050919050565b60006020820190508181036000830152610462816103eb565b9050919050565b600082825260208201905092915050565b60006104858261048c565b9050919050565b600073ffffffffffffffffffffffffffffffffffffffff82169050919050565b7f696e76616c696420746f6b656e20616464726573730000000000000000000000600082015250565b7f65786368616e676520616c726561647920657869737473000000000000000000600082015250565b6105078161047a565b811461051257600080fd5b5056fe60806040523480156200001157600080fd5b506040516200348b3803806200348b83398181016040528101906200003791906200029a565b6040518060400160405280600881526020017f4c7020546f6b656e0000000000000000000000000000000000000000000000008152506040518060400160405280600281526020017f4c500000000000000000000000000000000000000000000000000000000000008152508160039080519060200190620000bb929190620001d3565b508060049080519060200190620000d4929190620001d3565b505050600073ffffffffffffffffffffffffffffffffffffffff168173ffffffffffffffffffffffffffffffffffffffff1614156200014a576040517f08c379a00000000000000000000000000000000000000000000000000000000081526004016200014190620002ed565b60405180910390fd5b80600560006101000a81548173ffffffffffffffffffffffffffffffffffffffff021916908373ffffffffffffffffffffffffffffffffffffffff16021790555033600660006101000a81548173ffffffffffffffffffffffffffffffffffffffff021916908373ffffffffffffffffffffffffffffffffffffffff16021790555050620003fc565b828054620001e19062000354565b90600052602060002090601f01602090048101928262000205576000855562000251565b82601f106200022057805160ff191683800117855562000251565b8280016001018555821562000251579182015b828111156200025057825182559160200191906001019062000233565b5b50905062000260919062000264565b5090565b5b808211156200027f57600081600090555060010162000265565b5090565b6000815190506200029481620003e2565b92915050565b600060208284031215620002ad57600080fd5b6000620002bd8482850162000283565b91505092915050565b6000620002d5600d836200030f565b9150620002e282620003b9565b602082019050919050565b600060208201905081810360008301526200030881620002c6565b9050919050565b600082825260208201905092915050565b60006200032d8262000334565b9050919050565b600073ffffffffffffffffffffffffffffffffffffffff82169050919050565b600060028204905060018216806200036d57607f821691505b602082108114156200038457620003836200038a565b5b50919050565b7f4e487b7100000000000000000000000000000000000000000000000000000000600052602260045260246000fd5b7f496e76616c696420746f6b656e00000000000000000000000000000000000000600082015250565b620003ed8162000320565b8114620003f957600080fd5b50565b61307f806200040c6000396000f3fe60806040526004361061014b5760003560e01c806394afc362116100b6578063c2507ac11161006f578063c2507ac1146104ef578063dd62ed3e1461052c578063e0486c8a14610569578063ed9aab5114610592578063f7a7e324146105bd578063f979dcd7146105e65761014b565b806394afc362146103a457806395d89b41146103e15780639c8f9f231461040c5780639d76ea581461044a578063a457c2d714610475578063a9059cbb146104b25761014b565b8063389d9a4011610108578063389d9a4014610276578063395093511461029257806351c6590a146102cf57806359bf5d39146102ff57806370a082311461032a5780638fc7a25d146103675761014b565b8063045af2581461015057806306fdde031461017b578063095ea7b3146101a657806318160ddd146101e357806323b872dd1461020e578063313ce5671461024b575b600080fd5b34801561015c57600080fd5b50610165610602565b6040516101729190612895565b60405180910390f35b34801561018757600080fd5b5061019061063a565b60405161019d9190612633565b60405180910390f35b3480156101b257600080fd5b506101cd60048036038101906101c89190612134565b6106cc565b6040516101da9190612618565b60405180910390f35b3480156101ef57600080fd5b506101f86106ea565b6040516102059190612895565b60405180910390f35b34801561021a57600080fd5b50610235600480360381019061023091906120e5565b6106f4565b6040516102429190612618565b60405180910390f35b34801561025757600080fd5b506102606107ec565b60405161026d9190612902565b60405180910390f35b610290600480360381019061028b91906121eb565b6107f5565b005b34801561029e57600080fd5b506102b960048036038101906102b49190612134565b610803565b6040516102c69190612618565b60405180910390f35b6102e960048036038101906102e49190612199565b6108af565b6040516102f69190612895565b60405180910390f35b34801561030b57600080fd5b50610314610a33565b6040516103219190612895565b60405180910390f35b34801561033657600080fd5b50610351600480360381019061034c9190612057565b610ae5565b60405161035e9190612895565b60405180910390f35b34801561037357600080fd5b5061038e60048036038101906103899190612199565b610b2d565b60405161039b9190612895565b60405180910390f35b3480156103b057600080fd5b506103cb60048036038101906103c69190612199565b610b90565b6040516103d89190612895565b60405180910390f35b3480156103ed57600080fd5b506103f6610de2565b6040516104039190612633565b60405180910390f35b34801561041857600080fd5b50610433600480360381019061042e9190612199565b610e74565b6040516104419291906128d9565b60405180910390f35b34801561045657600080fd5b5061045f611013565b60405161046c919061259d565b60405180910390f35b34801561048157600080fd5b5061049c60048036038101906104979190612134565b611039565b6040516104a99190612618565b60405180910390f35b3480156104be57600080fd5b506104d960048036038101906104d49190612134565b611124565b6040516104e69190612618565b60405180910390f35b3480156104fb57600080fd5b5061051660048036038101906105119190612199565b611142565b6040516105239190612895565b60405180910390f35b34801561053857600080fd5b50610553600480360381019061054e91906120a9565b6111a5565b6040516105609190612895565b60405180910390f35b34801561057557600080fd5b50610590600480360381019061058b9190612227565b61122c565b005b34801561059e57600080fd5b506105a7611389565b6040516105b4919061259d565b60405180910390f35b3480156105c957600080fd5b506105e460048036038101906105df9190612263565b6113af565b005b61060060048036038101906105fb9190612199565b611682565b005b6000804790506000610612610a33565b905081670de0b6b3a76400008261062991906129c0565b610633919061298f565b9250505090565b60606003805461064990612ad6565b80601f016020809104026020016040519081016040528092919081815260200182805461067590612ad6565b80156106c25780601f10610697576101008083540402835291602001916106c2565b820191906000526020600020905b8154815290600101906020018083116106a557829003601f168201915b5050505050905090565b60006106e06106d961168f565b8484611697565b6001905092915050565b6000600254905090565b6000610701848484611862565b6000600160008673ffffffffffffffffffffffffffffffffffffffff1673ffffffffffffffffffffffffffffffffffffffff168152602001908152602001600020600061074c61168f565b73ffffffffffffffffffffffffffffffffffffffff1673ffffffffffffffffffffffffffffffffffffffff168152602001908152602001600020549050828110156107cc576040517f08c379a00000000000000000000000000000000000000000000000000000000081526004016107c390612755565b60405180910390fd5b6107e0856107d861168f565b858403611697565b60019150509392505050565b60006012905090565b6107ff8282611ae3565b5050565b60006108a561081061168f565b84846001600061081e61168f565b73ffffffffffffffffffffffffffffffffffffffff1673ffffffffffffffffffffffffffffffffffffffff16815260200190815260200160002060008873ffffffffffffffffffffffffffffffffffffffff1673ffffffffffffffffffffffffffffffffffffffff168152602001908152602001600020546108a09190612939565b611697565b6001905092915050565b60008060006108bc6106ea565b14156108ca57479050610968565b600034476108d89190612a1a565b905060006108e4610a33565b905060008282346108f591906129c0565b6108ff919061298f565b905080861015610944576040517f08c379a000000000000000000000000000000000000000000000000000000000815260040161093b90612775565b60405180910390fd5b8261094d6106ea565b3461095891906129c0565b610962919061298f565b93505050505b6000600560009054906101000a900473ffffffffffffffffffffffffffffffffffffffff1690508073ffffffffffffffffffffffffffffffffffffffff166323b872dd3330876040518463ffffffff1660e01b81526004016109cc939291906125b8565b602060405180830381600087803b1580156109e657600080fd5b505af11580156109fa573d6000803e3d6000fd5b505050506040513d601f19601f82011682018060405250810190610a1e9190612170565b50610a293383611c02565b8192505050919050565b6000600560009054906101000a900473ffffffffffffffffffffffffffffffffffffffff1673ffffffffffffffffffffffffffffffffffffffff166370a08231306040518263ffffffff1660e01b8152600401610a90919061259d565b60206040518083038186803b158015610aa857600080fd5b505afa158015610abc573d6000803e3d6000fd5b505050506040513d601f19601f82011682018060405250810190610ae091906121c2565b905090565b60008060008373ffffffffffffffffffffffffffffffffffffffff1673ffffffffffffffffffffffffffffffffffffffff168152602001908152602001600020549050919050565b6000808211610b71576040517f08c379a0000000000000000000000000000000000000000000000000000000008152600401610b6890612715565b60405180910390fd5b6000610b7b610a33565b9050610b88838247611d62565b915050919050565b600080600660009054906101000a900473ffffffffffffffffffffffffffffffffffffffff1673ffffffffffffffffffffffffffffffffffffffff166306f2bf62600560009054906101000a900473ffffffffffffffffffffffffffffffffffffffff166040518263ffffffff1660e01b8152600401610c10919061259d565b602060405180830381600087803b158015610c2a57600080fd5b505af1158015610c3e573d6000803e3d6000fd5b505050506040513d601f19601f82011682018060405250810190610c629190612080565b90503073ffffffffffffffffffffffffffffffffffffffff168173ffffffffffffffffffffffffffffffffffffffff161415610cd3576040517f08c379a0000000000000000000000000000000000000000000000000000000008152600401610cca90612795565b60405180910390fd5b600073ffffffffffffffffffffffffffffffffffffffff168173ffffffffffffffffffffffffffffffffffffffff161415610d43576040517f08c379a0000000000000000000000000000000000000000000000000000000008152600401610d3a906127f5565b60405180910390fd5b6000610d4e84610b2d565b90508173ffffffffffffffffffffffffffffffffffffffff1663c2507ac1826040518263ffffffff1660e01b8152600401610d899190612895565b60206040518083038186803b158015610da157600080fd5b505afa158015610db5573d6000803e3d6000fd5b505050506040513d601f19601f82011682018060405250810190610dd991906121c2565b92505050919050565b606060048054610df190612ad6565b80601f0160208091040260200160405190810160405280929190818152602001828054610e1d90612ad6565b8015610e6a5780601f10610e3f57610100808354040283529160200191610e6a565b820191906000526020600020905b815481529060010190602001808311610e4d57829003601f168201915b5050505050905090565b60008060008311610eba576040517f08c379a0000000000000000000000000000000000000000000000000000000008152600401610eb1906126f5565b60405180910390fd5b6000610ec46106ea565b8447610ed091906129c0565b610eda919061298f565b90506000610ee66106ea565b85610eef610a33565b610ef991906129c0565b610f03919061298f565b9050610f0f3386611e0d565b3373ffffffffffffffffffffffffffffffffffffffff166108fc839081150290604051600060405180830381858888f19350505050158015610f55573d6000803e3d6000fd5b50600560009054906101000a900473ffffffffffffffffffffffffffffffffffffffff1673ffffffffffffffffffffffffffffffffffffffff1663a9059cbb33836040518363ffffffff1660e01b8152600401610fb39291906125ef565b602060405180830381600087803b158015610fcd57600080fd5b505af1158015610fe1573d6000803e3d6000fd5b505050506040513d601f19601f820116820180604052508101906110059190612170565b508181935093505050915091565b600560009054906101000a900473ffffffffffffffffffffffffffffffffffffffff1681565b6000806001600061104861168f565b73ffffffffffffffffffffffffffffffffffffffff1673ffffffffffffffffffffffffffffffffffffffff16815260200190815260200160002060008573ffffffffffffffffffffffffffffffffffffffff1673ffffffffffffffffffffffffffffffffffffffff16815260200190815260200160002054905082811015611105576040517f08c379a00000000000000000000000000000000000000000000000000000000081526004016110fc90612855565b60405180910390fd5b61111961111061168f565b85858403611697565b600191505092915050565b600061113861113161168f565b8484611862565b6001905092915050565b6000808211611186576040517f08c379a000000000000000000000000000000000000000000000000000000000815260040161117d90612735565b60405180910390fd5b6000611190610a33565b905061119d834783611d62565b915050919050565b6000600160008473ffffffffffffffffffffffffffffffffffffffff1673ffffffffffffffffffffffffffffffffffffffff16815260200190815260200160002060008373ffffffffffffffffffffffffffffffffffffffff1673ffffffffffffffffffffffffffffffffffffffff16815260200190815260200160002054905092915050565b6000611236610a33565b90506000611245848347611d62565b90508281101561128a576040517f08c379a0000000000000000000000000000000000000000000000000000000008152600401611281906127d5565b60405180910390fd5b600560009054906101000a900473ffffffffffffffffffffffffffffffffffffffff1673ffffffffffffffffffffffffffffffffffffffff166323b872dd3330876040518463ffffffff1660e01b81526004016112e9939291906125b8565b602060405180830381600087803b15801561130357600080fd5b505af1158015611317573d6000803e3d6000fd5b505050506040513d601f19601f8201168201806040525081019061133b9190612170565b503373ffffffffffffffffffffffffffffffffffffffff166108fc829081150290604051600060405180830381858888f19350505050158015611382573d6000803e3d6000fd5b5050505050565b600660009054906101000a900473ffffffffffffffffffffffffffffffffffffffff1681565b6000600660009054906101000a900473ffffffffffffffffffffffffffffffffffffffff1673ffffffffffffffffffffffffffffffffffffffff166306f2bf62836040518263ffffffff1660e01b815260040161140c919061259d565b602060405180830381600087803b15801561142657600080fd5b505af115801561143a573d6000803e3d6000fd5b505050506040513d601f19601f8201168201806040525081019061145e9190612080565b90503073ffffffffffffffffffffffffffffffffffffffff168173ffffffffffffffffffffffffffffffffffffffff1614156114cf576040517f08c379a00000000000000000000000000000000000000000000000000000000081526004016114c690612795565b60405180910390fd5b600073ffffffffffffffffffffffffffffffffffffffff168173ffffffffffffffffffffffffffffffffffffffff16141561153f576040517f08c379a0000000000000000000000000000000000000000000000000000000008152600401611536906127f5565b60405180910390fd5b6000611549610a33565b90506000611558868347611d62565b9050600560009054906101000a900473ffffffffffffffffffffffffffffffffffffffff1673ffffffffffffffffffffffffffffffffffffffff166323b872dd3330896040518463ffffffff1660e01b81526004016115b9939291906125b8565b602060405180830381600087803b1580156115d357600080fd5b505af11580156115e7573d6000803e3d6000fd5b505050506040513d601f19601f8201168201806040525081019061160b9190612170565b508273ffffffffffffffffffffffffffffffffffffffff1663389d9a408287336040518463ffffffff1660e01b81526004016116489291906128b0565b6000604051808303818588803b15801561166157600080fd5b505af1158015611675573d6000803e3d6000fd5b5050505050505050505050565b61168c8133611ae3565b50565b600033905090565b600073ffffffffffffffffffffffffffffffffffffffff168373ffffffffffffffffffffffffffffffffffffffff161415611707576040517f08c379a00000000000000000000000000000000000000000000000000000000081526004016116fe90612835565b60405180910390fd5b600073ffffffffffffffffffffffffffffffffffffffff168273ffffffffffffffffffffffffffffffffffffffff161415611777576040517f08c379a000000000000000000000000000000000000000000000000000000000815260040161176e906126b5565b60405180910390fd5b80600160008573ffffffffffffffffffffffffffffffffffffffff1673ffffffffffffffffffffffffffffffffffffffff16815260200190815260200160002060008473ffffffffffffffffffffffffffffffffffffffff1673ffffffffffffffffffffffffffffffffffffffff168152602001908152602001600020819055508173ffffffffffffffffffffffffffffffffffffffff168373ffffffffffffffffffffffffffffffffffffffff167f8c5be1e5ebec7d5bd14f71427d1e84f3dd0314c0f7b2291e5b200ac8c7c3b925836040516118559190612895565b60405180910390a3505050565b600073ffffffffffffffffffffffffffffffffffffffff168373ffffffffffffffffffffffffffffffffffffffff1614156118d2576040517f08c379a00000000000000000000000000000000000000000000000000000000081526004016118c990612815565b60405180910390fd5b600073ffffffffffffffffffffffffffffffffffffffff168273ffffffffffffffffffffffffffffffffffffffff161415611942576040517f08c379a000000000000000000000000000000000000000000000000000000000815260040161193990612655565b60405180910390fd5b61194d838383611fe4565b60008060008573ffffffffffffffffffffffffffffffffffffffff1673ffffffffffffffffffffffffffffffffffffffff168152602001908152602001600020549050818110156119d3576040517f08c379a00000000000000000000000000000000000000000000000000000000081526004016119ca906126d5565b60405180910390fd5b8181036000808673ffffffffffffffffffffffffffffffffffffffff1673ffffffffffffffffffffffffffffffffffffffff16815260200190815260200160002081905550816000808573ffffffffffffffffffffffffffffffffffffffff1673ffffffffffffffffffffffffffffffffffffffff1681526020019081526020016000206000828254611a669190612939565b925050819055508273ffffffffffffffffffffffffffffffffffffffff168473ffffffffffffffffffffffffffffffffffffffff167fddf252ad1be2c89b69c2b068fc378daa952ba7f163c4a11628f55a4df523b3ef84604051611aca9190612895565b60405180910390a3611add848484611fe9565b50505050565b6000611aed610a33565b90506000611b07343447611b019190612a1a565b84611d62565b905083811015611b4c576040517f08c379a0000000000000000000000000000000000000000000000000000000008152600401611b43906127d5565b60405180910390fd5b600560009054906101000a900473ffffffffffffffffffffffffffffffffffffffff1673ffffffffffffffffffffffffffffffffffffffff1663a9059cbb84836040518363ffffffff1660e01b8152600401611ba99291906125ef565b602060405180830381600087803b158015611bc357600080fd5b505af1158015611bd7573d6000803e3d6000fd5b505050506040513d601f19601f82011682018060405250810190611bfb9190612170565b5050505050565b600073ffffffffffffffffffffffffffffffffffffffff168273ffffffffffffffffffffffffffffffffffffffff161415611c72576040517f08c379a0000000000000000000000000000000000000000000000000000000008152600401611c6990612875565b60405180910390fd5b611c7e60008383611fe4565b8060026000828254611c909190612939565b92505081905550806000808473ffffffffffffffffffffffffffffffffffffffff1673ffffffffffffffffffffffffffffffffffffffff1681526020019081526020016000206000828254611ce59190612939565b925050819055508173ffffffffffffffffffffffffffffffffffffffff16600073ffffffffffffffffffffffffffffffffffffffff167fddf252ad1be2c89b69c2b068fc378daa952ba7f163c4a11628f55a4df523b3ef83604051611d4a9190612895565b60405180910390a3611d5e60008383611fe9565b5050565b60008083118015611d735750600082115b611db2576040517f08c379a0000000000000000000000000000000000000000000000000000000008152600401611da990612695565b60405180910390fd5b60006063905060008186611dc691906129c0565b905060008482611dd691906129c0565b9050600082606488611de891906129c0565b611df29190612939565b90508082611e00919061298f565b9450505050509392505050565b600073ffffffffffffffffffffffffffffffffffffffff168273ffffffffffffffffffffffffffffffffffffffff161415611e7d576040517f08c379a0000000000000000000000000000000000000000000000000000000008152600401611e74906127b5565b60405180910390fd5b611e8982600083611fe4565b60008060008473ffffffffffffffffffffffffffffffffffffffff1673ffffffffffffffffffffffffffffffffffffffff16815260200190815260200160002054905081811015611f0f576040517f08c379a0000000000000000000000000000000000000000000000000000000008152600401611f0690612675565b60405180910390fd5b8181036000808573ffffffffffffffffffffffffffffffffffffffff1673ffffffffffffffffffffffffffffffffffffffff168152602001908152602001600020819055508160026000828254611f669190612a1a565b92505081905550600073ffffffffffffffffffffffffffffffffffffffff168373ffffffffffffffffffffffffffffffffffffffff167fddf252ad1be2c89b69c2b068fc378daa952ba7f163c4a11628f55a4df523b3ef84604051611fcb9190612895565b60405180910390a3611fdf83600084611fe9565b505050565b505050565b505050565b600081359050611ffd81613004565b92915050565b60008151905061201281613004565b92915050565b6000815190506120278161301b565b92915050565b60008135905061203c81613032565b92915050565b60008151905061205181613032565b92915050565b60006020828403121561206957600080fd5b600061207784828501611fee565b91505092915050565b60006020828403121561209257600080fd5b60006120a084828501612003565b91505092915050565b600080604083850312156120bc57600080fd5b60006120ca85828601611fee565b92505060206120db85828601611fee565b9150509250929050565b6000806000606084860312156120fa57600080fd5b600061210886828701611fee565b935050602061211986828701611fee565b925050604061212a8682870161202d565b9150509250925092565b6000806040838503121561214757600080fd5b600061215585828601611fee565b92505060206121668582860161202d565b9150509250929050565b60006020828403121561218257600080fd5b600061219084828501612018565b91505092915050565b6000602082840312156121ab57600080fd5b60006121b98482850161202d565b91505092915050565b6000602082840312156121d457600080fd5b60006121e284828501612042565b91505092915050565b600080604083850312156121fe57600080fd5b600061220c8582860161202d565b925050602061221d85828601611fee565b9150509250929050565b6000806040838503121561223a57600080fd5b60006122488582860161202d565b92505060206122598582860161202d565b9150509250929050565b60008060006060848603121561227857600080fd5b60006122868682870161202d565b93505060206122978682870161202d565b92505060406122a886828701611fee565b9150509250925092565b6122bb81612a4e565b82525050565b6122ca81612a60565b82525050565b60006122db8261291d565b6122e58185612928565b93506122f5818560208601612aa3565b6122fe81612b95565b840191505092915050565b6000612316602383612928565b915061232182612ba6565b604082019050919050565b6000612339602283612928565b915061234482612bf5565b604082019050919050565b600061235c601083612928565b915061236782612c44565b602082019050919050565b600061237f602283612928565b915061238a82612c6d565b604082019050919050565b60006123a2602683612928565b91506123ad82612cbc565b604082019050919050565b60006123c5600e83612928565b91506123d082612d0b565b602082019050919050565b60006123e8601483612928565b91506123f382612d34565b602082019050919050565b600061240b601283612928565b915061241682612d5d565b602082019050919050565b600061242e602883612928565b915061243982612d86565b604082019050919050565b6000612451601983612928565b915061245c82612dd5565b602082019050919050565b6000612474601883612928565b915061247f82612dfe565b602082019050919050565b6000612497602183612928565b91506124a282612e27565b604082019050919050565b60006124ba601a83612928565b91506124c582612e76565b602082019050919050565b60006124dd602483612928565b91506124e882612e9f565b604082019050919050565b6000612500602583612928565b915061250b82612eee565b604082019050919050565b6000612523602483612928565b915061252e82612f3d565b604082019050919050565b6000612546602583612928565b915061255182612f8c565b604082019050919050565b6000612569601f83612928565b915061257482612fdb565b602082019050919050565b61258881612a8c565b82525050565b61259781612a96565b82525050565b60006020820190506125b260008301846122b2565b92915050565b60006060820190506125cd60008301866122b2565b6125da60208301856122b2565b6125e7604083018461257f565b949350505050565b600060408201905061260460008301856122b2565b612611602083018461257f565b9392505050565b600060208201905061262d60008301846122c1565b92915050565b6000602082019050818103600083015261264d81846122d0565b905092915050565b6000602082019050818103600083015261266e81612309565b9050919050565b6000602082019050818103600083015261268e8161232c565b9050919050565b600060208201905081810360008301526126ae8161234f565b9050919050565b600060208201905081810360008301526126ce81612372565b9050919050565b600060208201905081810360008301526126ee81612395565b9050919050565b6000602082019050818103600083015261270e816123b8565b9050919050565b6000602082019050818103600083015261272e816123db565b9050919050565b6000602082019050818103600083015261274e816123fe565b9050919050565b6000602082019050818103600083015261276e81612421565b9050919050565b6000602082019050818103600083015261278e81612444565b9050919050565b600060208201905081810360008301526127ae81612467565b9050919050565b600060208201905081810360008301526127ce8161248a565b9050919050565b600060208201905081810360008301526127ee816124ad565b9050919050565b6000602082019050818103600083015261280e816124d0565b9050919050565b6000602082019050818103600083015261282e816124f3565b9050919050565b6000602082019050818103600083015261284e81612516565b9050919050565b6000602082019050818103600083015261286e81612539565b9050919050565b6000602082019050818103600083015261288e8161255c565b9050919050565b60006020820190506128aa600083018461257f565b92915050565b60006040820190506128c5600083018561257f565b6128d260208301846122b2565b9392505050565b60006040820190506128ee600083018561257f565b6128fb602083018461257f565b9392505050565b6000602082019050612917600083018461258e565b92915050565b600081519050919050565b600082825260208201905092915050565b600061294482612a8c565b915061294f83612a8c565b9250827fffffffffffffffffffffffffffffffffffffffffffffffffffffffffffffffff0382111561298457612983612b08565b5b828201905092915050565b600061299a82612a8c565b91506129a583612a8c565b9250826129b5576129b4612b37565b5b828204905092915050565b60006129cb82612a8c565b91506129d683612a8c565b9250817fffffffffffffffffffffffffffffffffffffffffffffffffffffffffffffffff0483118215151615612a0f57612a0e612b08565b5b828202905092915050565b6000612a2582612a8c565b9150612a3083612a8c565b925082821015612a4357612a42612b08565b5b828203905092915050565b6000612a5982612a6c565b9050919050565b60008115159050919050565b600073ffffffffffffffffffffffffffffffffffffffff82169050919050565b6000819050919050565b600060ff82169050919050565b60005b83811015612ac1578082015181840152602081019050612aa6565b83811115612ad0576000848401525b50505050565b60006002820490506001821680612aee57607f821691505b60208210811415612b0257612b01612b66565b5b50919050565b7f4e487b7100000000000000000000000000000000000000000000000000000000600052601160045260246000fd5b7f4e487b7100000000000000000000000000000000000000000000000000000000600052601260045260246000fd5b7f4e487b7100000000000000000000000000000000000000000000000000000000600052602260045260246000fd5b6000601f19601f8301169050919050565b7f45524332303a207472616e7366657220746f20746865207a65726f206164647260008201527f6573730000000000000000000000000000000000000000000000000000000000602082015250565b7f45524332303a206275726e20616d6f756e7420657863656564732062616c616e60008201527f6365000000000000000000000000000000000000000000000000000000000000602082015250565b7f496e76616c696420726573657276657300000000000000000000000000000000600082015250565b7f45524332303a20617070726f766520746f20746865207a65726f20616464726560008201527f7373000000000000000000000000000000000000000000000000000000000000602082015250565b7f45524332303a207472616e7366657220616d6f756e742065786365656473206260008201527f616c616e63650000000000000000000000000000000000000000000000000000602082015250565b7f696e76616c696420616d6f756e74000000000000000000000000000000000000600082015250565b7f496e76616c696420746f6b656e20616d6f756e74000000000000000000000000600082015250565b7f496e76616c69642045544820616d6f756e740000000000000000000000000000600082015250565b7f45524332303a207472616e7366657220616d6f756e742065786365656473206160008201527f6c6c6f77616e6365000000000000000000000000000000000000000000000000602082015250565b7f496e636f727265637420746f6b656e2f65746820726174696f00000000000000600082015250565b7f696e76616c69642065786368616e676520616464726573730000000000000000600082015250565b7f45524332303a206275726e2066726f6d20746865207a65726f2061646472657360008201527f7300000000000000000000000000000000000000000000000000000000000000602082015250565b7f696e73756666696369656e74206f757470757420616d6f756e74000000000000600082015250565b7f74686572652773206e6f2065786368616e676520666f722077616e746564207460008201527f6f6b656e00000000000000000000000000000000000000000000000000000000602082015250565b7f45524332303a207472616e736665722066726f6d20746865207a65726f20616460008201527f6472657373000000000000000000000000000000000000000000000000000000602082015250565b7f45524332303a20617070726f76652066726f6d20746865207a65726f2061646460008201527f7265737300000000000000000000000000000000000000000000000000000000602082015250565b7f45524332303a2064656372656173656420616c6c6f77616e63652062656c6f7760008201527f207a65726f000000000000000000000000000000000000000000000000000000602082015250565b7f45524332303a206d696e7420746f20746865207a65726f206164647265737300600082015250565b61300d81612a4e565b811461301857600080fd5b50565b61302481612a60565b811461302f57600080fd5b50565b61303b81612a8c565b811461304657600080fd5b5056fea26469706673582212205b6076bea146320fdf6572ae3727c76509f155b014e574ff7db1d87754c6645164736f6c63430008040033a264697066735822122033fd096c87c2930d87ec17db8072d208d16249363d08b085d614cc7cc62ae2c864736f6c63430008040033",
  "linkReferences": {},
  "deployedLinkReferences": {}
}